{"abi":[{"type":"constructor","inputs":[],"stateMutability":"nonpayable"},{"type":"function","name":"attest","inputs":[{"name":"_proofAsBytes","type":"bytes","internalType":"bytes"}],"outputs":[{"name":"","type":"string","internalType":"string"}],"stateMutability":"nonpayable"},{"type":"function","name":"defaultAllocator","inputs":[],"outputs":[{"name":"","type":"address","internalType":"address"}],"stateMutability":"view"},{"type":"function","name":"getAttestation","inputs":[{"name":"uid","type":"bytes32","internalType":"bytes32"}],"outputs":[{"name":"","type":"tuple","internalType":"struct Attestation","components":[{"name":"uid","type":"bytes32","internalType":"bytes32"},{"name":"schema","type":"bytes32","internalType":"bytes32"},{"name":"uHash","type":"bytes32","internalType":"bytes32"},{"name":"recipient","type":"address","internalType":"address"},{"name":"publicFieldsHash","type":"bytes32","internalType":"bytes32"}]}],"stateMutability":"view"},{"type":"function","name":"getAttestationFromAddress","inputs":[{"name":"_recipient","type":"address","internalType":"address"}],"outputs":[{"name":"","type":"tuple","internalType":"struct Attestation","components":[{"name":"uid","type":"bytes32","internalType":"bytes32"},{"name":"schema","type":"bytes32","internalType":"bytes32"},{"name":"uHash","type":"bytes32","internalType":"bytes32"},{"name":"recipient","type":"address","internalType":"address"},{"name":"publicFieldsHash","type":"bytes32","internalType":"bytes32"}]}],"stateMutability":"view"},{"type":"function","name":"verify","inputs":[{"name":"_proof","type":"tuple","internalType":"struct Proof","components":[{"name":"taskId","type":"bytes32","internalType":"bytes32"},{"name":"schemaId","type":"bytes32","internalType":"bytes32"},{"name":"uHash","type":"bytes32","internalType":"bytes32"},{"name":"recipient","type":"address","internalType":"address"},{"name":"publicFieldsHash","type":"bytes32","internalType":"bytes32"},{"name":"validator","type":"address","internalType":"address"},{"name":"allocatorSignature","type":"bytes","internalType":"bytes"},{"name":"validatorSignature","type":"bytes","internalType":"bytes"}]}],"outputs":[{"name":"","type":"bool","internalType":"bool"}],"stateMutability":"view"},{"type":"function","name":"verifyAllocatorSignature","inputs":[{"name":"_taskId","type":"bytes32","internalType":"bytes32"},{"name":"_schemaId","type":"bytes32","internalType":"bytes32"},{"name":"_validator","type":"address","internalType":"address"},{"name":"_allocatorSignature","type":"bytes","internalType":"bytes"}],"outputs":[{"name":"","type":"bool","internalType":"bool"}],"stateMutability":"view"},{"type":"function","name":"verifyValidatorSignature","inputs":[{"name":"_taskId","type":"bytes32","internalType":"bytes32"},{"name":"_schemaId","type":"bytes32","internalType":"bytes32"},{"name":"_uHash","type":"bytes32","internalType":"bytes32"},{"name":"_recipient","type":"address","internalType":"address"},{"name":"_publicFieldsHash","type":"bytes32","internalType":"bytes32"},{"name":"_validator","type":"address","internalType":"address"},{"name":"_validatorSignature","type":"bytes","internalType":"bytes"}],"outputs":[{"name":"","type":"bool","internalType":"bool"}],"stateMutability":"pure"}],"bytecode":{"object":"0x5f80546001600160a01b0319167319a567b3b212a5b35ba0e3b600fbed5c2ee9083d17905560c0604052600a6080908152691898590814d958dc995d60b21b60a05260039061004e90826100f8565b5034801561005a575f5ffd5b506101b2565b634e487b7160e01b5f52604160045260245ffd5b600181811c9082168061008857607f821691505b6020821081036100a657634e487b7160e01b5f52602260045260245ffd5b50919050565b601f8211156100f357805f5260205f20601f840160051c810160208510156100d15750805b601f840160051c820191505b818110156100f0575f81556001016100dd565b50505b505050565b81516001600160401b0381111561011157610111610060565b6101258161011f8454610074565b846100ac565b6020601f821160018114610157575f83156101405750848201515b5f19600385901b1c1916600184901b1784556100f0565b5f84815260208120601f198516915b828110156101865787850151825560209485019460019092019101610166565b50848210156101a357868401515f19600387901b60f8161c191681555b50505050600190811b01905550565b610e00806101bf5f395ff3fe608060405234801561000f575f5ffd5b506004361061007a575f3560e01c8063430768ab11610058578063430768ab1461012d578063756c6eed1461014d578063a3112a6414610160578063b414544614610173575f5ffd5b806303975ea91461007e57806308fb8396146100e05780631f97770c1461010a575b5f5ffd5b61009161008c366004610912565b610186565b6040516100d791908151815260208083015190820152604080830151908201526060808301516001600160a01b0316908201526080918201519181019190915260a00190565b60405180910390f35b5f546100f2906001600160a01b031681565b6040516001600160a01b0390911681526020016100d7565b61011d610118366004610a1c565b610221565b60405190151581526020016100d7565b61014061013b366004610a7b565b61028e565b6040516100d79190610ab5565b61011d61015b366004610aea565b610464565b61009161016e366004610bcc565b6104b7565b61011d610181366004610be3565b610543565b6101bc6040518060a001604052805f81526020015f81526020015f81526020015f6001600160a01b031681526020015f81525090565b506001600160a01b039081165f908152600260208181526040808420548452600180835293819020815160a081018352815481529481015492850192909252918101549183019190915260038101549092166060820152600490910154608082015290565b60408051602081018690529081018490526001600160a01b03831660608201525f9081906080016040516020818303038152906040528051906020012090505f61027361026d836105bb565b8561060d565b5f546001600160a01b03908116911614979650505050505050565b60605f828060200190518101906102a59190610cbe565b90506102b081610464565b6102f55760405162461bcd60e51b81526020600482015260116024820152701d995c9a599e481c1c9bdbd98819985a5b607a1b60448201526064015b60405180910390fd5b6040805160a0810182525f8082526020848101519083015283830151928201929092526060808401516001600160a01b0316908201526080808401519082015290805b6103428382610866565b5f818152600160205260409020549092501561036057600101610338565b8183525f82815260016020818152604080842087518155828801519381019390935580870151600280850191909155606080890151600380870180546001600160a01b0319166001600160a01b0393841617905560808b0151600490970196909655908a015116855290915290912083905580546103dd90610d92565b80601f016020809104026020016040519081016040528092919081815260200182805461040990610d92565b80156104545780601f1061042b57610100808354040283529160200191610454565b820191905f5260205f20905b81548152906001019060200180831161043757829003601f168201915b5050505050945050505050919050565b5f610480825f015183602001518460a001518560c00151610221565b80156104b157506104b1825f015183602001518460400151856060015186608001518760a001518860e00151610543565b92915050565b6104ed6040518060a001604052805f81526020015f81526020015f81526020015f6001600160a01b031681526020015f81525090565b505f90815260016020818152604092839020835160a08101855281548152928101549183019190915260028101549282019290925260038201546001600160a01b03166060820152600490910154608082015290565b604080516020810189905290810187905260608101869052608081018490526001600160a01b03851660a08201525f90819060c0016040516020818303038152906040528051906020012090505f61059d61026d836105bb565b6001600160a01b039081169086161492505050979650505050505050565b6040517f19457468657265756d205369676e6564204d6573736167653a0a3332000000006020820152603c81018290525f90605c01604051602081830303815290604052805190602001209050919050565b5f815160411461065f5760405162461bcd60e51b815260206004820152601860248201527f496e76616c6964207369676e6174757265206c656e677468000000000000000060448201526064016102ec565b6020820151604083015160608401515f1a7f7fffffffffffffffffffffffffffffff5d576e7357a4501ddfe92f46681b20a08211156107065760405162461bcd60e51b815260206004820152603d60248201527f5369676e617475726556616c696461746f72237265636f7665725369676e657260448201527f3a20696e76616c6964207369676e6174757265202773272076616c756500000060648201526084016102ec565b8060ff16601b1415801561071e57508060ff16601c14155b156107915760405162461bcd60e51b815260206004820152603d60248201527f5369676e617475726556616c696461746f72237265636f7665725369676e657260448201527f3a20696e76616c6964207369676e6174757265202776272076616c756500000060648201526084016102ec565b604080515f81526020810180835288905260ff831691810191909152606081018490526080810183905260019060a0016020604051602081039080840390855afa1580156107e1573d5f5f3e3d5ffd5b5050604051601f1901519450506001600160a01b03841661085d5760405162461bcd60e51b815260206004820152603060248201527f5369676e617475726556616c696461746f72237265636f7665725369676e657260448201526f1d1024a72b20a624a22fa9a4a3a722a960811b60648201526084016102ec565b50505092915050565b5f8260200151836040015184606001518560800151856040516020016108cd959493929190948552602085019390935260609190911b6bffffffffffffffffffffffff19166040840152605483015260e01b6001600160e01b031916607482015260780190565b60405160208183030381529060405280519060200120905092915050565b6001600160a01b03811681146108ff575f5ffd5b50565b803561090d816108eb565b919050565b5f60208284031215610922575f5ffd5b813561092d816108eb565b9392505050565b634e487b7160e01b5f52604160045260245ffd5b604051610100810167ffffffffffffffff8111828210171561096c5761096c610934565b60405290565b604051601f8201601f1916810167ffffffffffffffff8111828210171561099b5761099b610934565b604052919050565b5f67ffffffffffffffff8211156109bc576109bc610934565b50601f01601f191660200190565b5f82601f8301126109d9575f5ffd5b81356109ec6109e7826109a3565b610972565b818152846020838601011115610a00575f5ffd5b816020850160208301375f918101602001919091529392505050565b5f5f5f5f60808587031215610a2f575f5ffd5b84359350602085013592506040850135610a48816108eb565b9150606085013567ffffffffffffffff811115610a63575f5ffd5b610a6f878288016109ca565b91505092959194509250565b5f60208284031215610a8b575f5ffd5b813567ffffffffffffffff811115610aa1575f5ffd5b610aad848285016109ca565b949350505050565b602081525f82518060208401528060208501604085015e5f604082850101526040601f19601f83011684010191505092915050565b5f60208284031215610afa575f5ffd5b813567ffffffffffffffff811115610b10575f5ffd5b82016101008185031215610b22575f5ffd5b610b2a610948565b813581526020808301359082015260408083013590820152610b4e60608301610902565b606082015260808281013590820152610b6960a08301610902565b60a082015260c082013567ffffffffffffffff811115610b87575f5ffd5b610b93868285016109ca565b60c08301525060e082013567ffffffffffffffff811115610bb2575f5ffd5b610bbe868285016109ca565b60e083015250949350505050565b5f60208284031215610bdc575f5ffd5b5035919050565b5f5f5f5f5f5f5f60e0888a031215610bf9575f5ffd5b8735965060208801359550604088013594506060880135610c19816108eb565b93506080880135925060a0880135610c30816108eb565b915060c088013567ffffffffffffffff811115610c4b575f5ffd5b610c578a828b016109ca565b91505092959891949750929550565b805161090d816108eb565b5f82601f830112610c80575f5ffd5b8151610c8e6109e7826109a3565b818152846020838601011115610ca2575f5ffd5b8160208501602083015e5f918101602001919091529392505050565b5f60208284031215610cce575f5ffd5b815167ffffffffffffffff811115610ce4575f5ffd5b82016101008185031215610cf6575f5ffd5b610cfe610948565b815181526020808301519082015260408083015190820152610d2260608301610c66565b606082015260808281015190820152610d3d60a08301610c66565b60a082015260c082015167ffffffffffffffff811115610d5b575f5ffd5b610d6786828501610c71565b60c08301525060e082015167ffffffffffffffff811115610d86575f5ffd5b610bbe86828501610c71565b600181811c90821680610da657607f821691505b602082108103610dc457634e487b7160e01b5f52602260045260245ffd5b5091905056fea264697066735822122012da1a66dd2e5d9d7e7837e07e015020dd76a8486af78601f340566c0921a08f64736f6c634300081c0033","linkReferences":{}},"methodIdentifiers":{"attest(bytes)":"430768ab","defaultAllocator()":"08fb8396","getAttestation(bytes32)":"a3112a64","getAttestationFromAddress(address)":"03975ea9","verify((bytes32,bytes32,bytes32,address,bytes32,address,bytes,bytes))":"756c6eed","verifyAllocatorSignature(bytes32,bytes32,address,bytes)":"1f97770c","verifyValidatorSignature(bytes32,bytes32,bytes32,address,bytes32,address,bytes)":"b4145446"},"id":23}