{"abi":[{"type":"constructor","inputs":[],"stateMutability":"nonpayable"},{"type":"function","name":"defaultAllocator","inputs":[],"outputs":[{"name":"","type":"address","internalType":"address"}],"stateMutability":"view"},{"type":"function","name":"verify","inputs":[{"name":"_proof","type":"tuple","internalType":"struct Proof","components":[{"name":"taskId","type":"bytes32","internalType":"bytes32"},{"name":"schemaId","type":"bytes32","internalType":"bytes32"},{"name":"uHash","type":"bytes32","internalType":"bytes32"},{"name":"recipient","type":"address","internalType":"address"},{"name":"publicFieldsHash","type":"bytes32","internalType":"bytes32"},{"name":"validator","type":"address","internalType":"address"},{"name":"allocatorSignature","type":"bytes","internalType":"bytes"},{"name":"validatorSignature","type":"bytes","internalType":"bytes"}]}],"outputs":[{"name":"","type":"bool","internalType":"bool"}],"stateMutability":"view"},{"type":"function","name":"verifyAllocatorSignature","inputs":[{"name":"_taskId","type":"bytes32","internalType":"bytes32"},{"name":"_schemaId","type":"bytes32","internalType":"bytes32"},{"name":"_validator","type":"address","internalType":"address"},{"name":"_allocatorSignature","type":"bytes","internalType":"bytes"}],"outputs":[{"name":"","type":"bool","internalType":"bool"}],"stateMutability":"view"},{"type":"function","name":"verifyValidatorSignature","inputs":[{"name":"_taskId","type":"bytes32","internalType":"bytes32"},{"name":"_schemaId","type":"bytes32","internalType":"bytes32"},{"name":"_uHash","type":"bytes32","internalType":"bytes32"},{"name":"_recipient","type":"address","internalType":"address"},{"name":"_publicFieldsHash","type":"bytes32","internalType":"bytes32"},{"name":"_validator","type":"address","internalType":"address"},{"name":"_validatorSignature","type":"bytes","internalType":"bytes"}],"outputs":[{"name":"","type":"bool","internalType":"bool"}],"stateMutability":"pure"}],"bytecode":{"object":"0x60806040525f80546001600160a01b0319167319a567b3b212a5b35ba0e3b600fbed5c2ee9083d1790553480156033575f5ffd5b50610786806100415f395ff3fe608060405234801561000f575f5ffd5b506004361061004a575f3560e01c806308fb83961461004e5780631f97770c1461007d578063756c6eed146100a0578063b4145446146100b3575b5f5ffd5b5f54610060906001600160a01b031681565b6040516001600160a01b0390911681526020015b60405180910390f35b61009061008b366004610592565b6100c6565b6040519015158152602001610074565b6100906100ae3660046105ef565b610133565b6100906100c13660046106d1565b610186565b60408051602081018690529081018490526001600160a01b03831660608201525f9081906080016040516020818303038152906040528051906020012090505f610118610112836101fe565b85610250565b5f546001600160a01b03908116911614979650505050505050565b5f61014f825f015183602001518460a001518560c001516100c6565b80156101805750610180825f015183602001518460400151856060015186608001518760a001518860e00151610186565b92915050565b604080516020810189905290810187905260608101869052608081018490526001600160a01b03851660a08201525f90819060c0016040516020818303038152906040528051906020012090505f6101e0610112836101fe565b6001600160a01b039081169086161492505050979650505050505050565b6040517f19457468657265756d205369676e6564204d6573736167653a0a3332000000006020820152603c81018290525f90605c01604051602081830303815290604052805190602001209050919050565b5f81516041146102a75760405162461bcd60e51b815260206004820152601860248201527f496e76616c6964207369676e6174757265206c656e677468000000000000000060448201526064015b60405180910390fd5b6020820151604083015160608401515f1a7f7fffffffffffffffffffffffffffffff5d576e7357a4501ddfe92f46681b20a082111561034e5760405162461bcd60e51b815260206004820152603d60248201527f5369676e617475726556616c696461746f72237265636f7665725369676e657260448201527f3a20696e76616c6964207369676e6174757265202773272076616c7565000000606482015260840161029e565b8060ff16601b1415801561036657508060ff16601c14155b156103d95760405162461bcd60e51b815260206004820152603d60248201527f5369676e617475726556616c696461746f72237265636f7665725369676e657260448201527f3a20696e76616c6964207369676e6174757265202776272076616c7565000000606482015260840161029e565b604080515f81526020810180835288905260ff831691810191909152606081018490526080810183905260019060a0016020604051602081039080840390855afa158015610429573d5f5f3e3d5ffd5b5050604051601f1901519450506001600160a01b0384166104a55760405162461bcd60e51b815260206004820152603060248201527f5369676e617475726556616c696461746f72237265636f7665725369676e657260448201526f1d1024a72b20a624a22fa9a4a3a722a960811b606482015260840161029e565b50505092915050565b80356001600160a01b03811681146104c4575f5ffd5b919050565b634e487b7160e01b5f52604160045260245ffd5b604051610100810167ffffffffffffffff81118282101715610501576105016104c9565b60405290565b5f82601f830112610516575f5ffd5b813567ffffffffffffffff811115610530576105306104c9565b604051601f8201601f19908116603f0116810167ffffffffffffffff8111828210171561055f5761055f6104c9565b604052818152838201602001851015610576575f5ffd5b816020850160208301375f918101602001919091529392505050565b5f5f5f5f608085870312156105a5575f5ffd5b84359350602085013592506105bc604086016104ae565b9150606085013567ffffffffffffffff8111156105d7575f5ffd5b6105e387828801610507565b91505092959194509250565b5f602082840312156105ff575f5ffd5b813567ffffffffffffffff811115610615575f5ffd5b82016101008185031215610627575f5ffd5b61062f6104dd565b813581526020808301359082015260408083013590820152610653606083016104ae565b60608201526080828101359082015261066e60a083016104ae565b60a082015260c082013567ffffffffffffffff81111561068c575f5ffd5b61069886828501610507565b60c08301525060e082013567ffffffffffffffff8111156106b7575f5ffd5b6106c386828501610507565b60e083015250949350505050565b5f5f5f5f5f5f5f60e0888a0312156106e7575f5ffd5b873596506020880135955060408801359450610705606089016104ae565b93506080880135925061071a60a089016104ae565b915060c088013567ffffffffffffffff811115610735575f5ffd5b6107418a828b01610507565b9150509295989194975092955056fea26469706673582212205393c415d81a07081b4eba38336fac9c31d092d1756f214d227ab915bf0cc17264736f6c634300081c0033","linkReferences":{}},"methodIdentifiers":{"defaultAllocator()":"08fb8396","verify((bytes32,bytes32,bytes32,address,bytes32,address,bytes,bytes))":"756c6eed","verifyAllocatorSignature(bytes32,bytes32,address,bytes)":"1f97770c","verifyValidatorSignature(bytes32,bytes32,bytes32,address,bytes32,address,bytes)":"b4145446"},"id":26}