{"abi":[{"type":"constructor","inputs":[{"name":"_proxy","type":"address","internalType":"address"}],"stateMutability":"nonpayable"},{"type":"function","name":"assignSecret","inputs":[{"name":"_proof","type":"tuple","internalType":"struct Proof","components":[{"name":"taskId","type":"bytes32","internalType":"bytes32"},{"name":"schemaId","type":"bytes32","internalType":"bytes32"},{"name":"uHash","type":"bytes32","internalType":"bytes32"},{"name":"recipient","type":"address","internalType":"address"},{"name":"publicFieldsHash","type":"bytes32","internalType":"bytes32"},{"name":"validator","type":"address","internalType":"address"},{"name":"allocatorSignature","type":"bytes","internalType":"bytes"},{"name":"validatorSignature","type":"bytes","internalType":"bytes"}]}],"outputs":[{"name":"","type":"string","internalType":"string"}],"stateMutability":"nonpayable"},{"type":"function","name":"getSecret","inputs":[],"outputs":[{"name":"","type":"string","internalType":"string"}],"stateMutability":"view"},{"type":"function","name":"proxy","inputs":[],"outputs":[{"name":"","type":"address","internalType":"address"}],"stateMutability":"view"},{"type":"event","name":"Response","inputs":[{"name":"success","type":"bool","indexed":false,"internalType":"bool"},{"name":"secret","type":"string","indexed":false,"internalType":"string"},{"name":"recipient","type":"address","indexed":false,"internalType":"address"}],"anonymous":false}],"bytecode":{"object":"0x60c0604052600a6080908152691898590814d958dc995d60b21b60a0526001906100299082610110565b50348015610035575f5ffd5b50604051610a6f380380610a6f833981016040819052610054916101ca565b5f80546001600160a01b0319166001600160a01b03929092169190911790556101f7565b634e487b7160e01b5f52604160045260245ffd5b600181811c908216806100a057607f821691505b6020821081036100be57634e487b7160e01b5f52602260045260245ffd5b50919050565b601f82111561010b57805f5260205f20601f840160051c810160208510156100e95750805b601f840160051c820191505b81811015610108575f81556001016100f5565b50505b505050565b81516001600160401b0381111561012957610129610078565b61013d81610137845461008c565b846100c4565b6020601f82116001811461016f575f83156101585750848201515b5f19600385901b1c1916600184901b178455610108565b5f84815260208120601f198516915b8281101561019e578785015182556020948501946001909201910161017e565b50848210156101bb57868401515f19600387901b60f8161c191681555b50505050600190811b01905550565b5f602082840312156101da575f5ffd5b81516001600160a01b03811681146101f0575f5ffd5b9392505050565b61086b806102045f395ff3fe608060405234801561000f575f5ffd5b506004361061003f575f3560e01c80635b9fdc3014610043578063e30f7a5b14610061578063ec55688914610074575b5f5ffd5b61004b61009e565b60405161005891906103c3565b60405180910390f35b61004b61006f3660046103dc565b61012e565b5f54610086906001600160a01b031681565b6040516001600160a01b039091168152602001610058565b6060600180546100ad90610414565b80601f01602080910402602001604051908101604052809291908181526020018280546100d990610414565b80156101245780601f106100fb57610100808354040283529160200191610124565b820191905f5260205f20905b81548152906001019060200180831161010757829003601f168201915b5050505050905090565b606061013f60808301838301610467565b6001600160a01b0316336001600160a01b0316146101b85760405162461bcd60e51b815260206004820152602b60248201527f53656e646572206164647265737320646f206e6f74206d61746368207769746860448201526a20726563697069656e742160a81b60648201526084015b60405180910390fd5b5f805460405182916001600160a01b0316906101d89086906020016104f1565b60408051601f19818403018152908290526101f5916024016103c3565b60408051601f198184030181529181526020820180516001600160e01b031663430768ab60e01b1790525161022a91906105b1565b5f604051808303815f865af19150503d805f8114610263576040519150601f19603f3d011682016040523d82523d5f602084013e610268565b606091505b50915091508115610363578080602001905181019061028791906105db565b60019061029490826106da565b507f7167f058227928a5b4eb5e36f045565434d3702c8ed2f33a03b601c2c002a6d7600180336040516102c993929190610795565b60405180910390a1600180546102de90610414565b80601f016020809104026020016040519081016040528092919081815260200182805461030a90610414565b80156103555780601f1061032c57610100808354040283529160200191610355565b820191905f5260205f20905b81548152906001019060200180831161033857829003601f168201915b505050505092505050919050565b60405162461bcd60e51b81526020600482015260076024820152664e75682075682160c81b60448201526064016101af565b5f81518084528060208401602086015e5f602082860101526020601f19601f83011685010191505092915050565b602081525f6103d56020830184610395565b9392505050565b5f602082840312156103ec575f5ffd5b813567ffffffffffffffff811115610402575f5ffd5b820161010081850312156103d5575f5ffd5b600181811c9082168061042857607f821691505b60208210810361044657634e487b7160e01b5f52602260045260245ffd5b50919050565b80356001600160a01b0381168114610462575f5ffd5b919050565b5f60208284031215610477575f5ffd5b6103d58261044c565b5f5f8335601e19843603018112610495575f5ffd5b830160208101925035905067ffffffffffffffff8111156104b4575f5ffd5b8036038213156104c2575f5ffd5b9250929050565b81835281816020850137505f828201602090810191909152601f909101601f19169091010190565b60208082528235828201528201356040808301919091528201356060808301919091525f906001600160a01b039061052a90850161044c565b1660808301525f608084013590508060a08401525061054b60a0840161044c565b6001600160a01b03811660c08401525061056860c0840184610480565b61010060e085015261057f610120850182846104c9565b91505061058f60e0850185610480565b848303601f19016101008601526105a78382846104c9565b9695505050505050565b5f82518060208501845e5f920191825250919050565b634e487b7160e01b5f52604160045260245ffd5b5f602082840312156105eb575f5ffd5b815167ffffffffffffffff811115610601575f5ffd5b8201601f81018413610611575f5ffd5b805167ffffffffffffffff81111561062b5761062b6105c7565b604051601f8201601f19908116603f0116810167ffffffffffffffff8111828210171561065a5761065a6105c7565b604052818152828201602001861015610671575f5ffd5b8160208401602083015e5f91810160200191909152949350505050565b601f8211156106d557805f5260205f20601f840160051c810160208510156106b35750805b601f840160051c820191505b818110156106d2575f81556001016106bf565b50505b505050565b815167ffffffffffffffff8111156106f4576106f46105c7565b610708816107028454610414565b8461068e565b6020601f82116001811461073a575f83156107235750848201515b5f19600385901b1c1916600184901b1784556106d2565b5f84815260208120601f198516915b828110156107695787850151825560209485019460019092019101610749565b508482101561078657868401515f19600387901b60f8161c191681555b50505050600190811b01905550565b8315158152606060208201525f5f84546107ae81610414565b806060860152600182165f81146107cc57600181146107e857610819565b60ff1983166080870152608082151560051b8701019350610819565b875f5260205f205f5b83811015610810578154888201608001526001909101906020016107f1565b87016080019450505b5050506001600160a01b0384166040840152905094935050505056fea264697066735822122049e68bcb618cc5d483ff8af7a99270fd0690865b13e184dc855260cd75f282eb64736f6c634300081c0033","linkReferences":{}},"methodIdentifiers":{"assignSecret((bytes32,bytes32,bytes32,address,bytes32,address,bytes,bytes))":"e30f7a5b","getSecret()":"5b9fdc30","proxy()":"ec556889"},"id":24}